:10400000007F00201D920000CD90000085B60000CA
:1040100019920000199200001992000019920000F4
:1040200000000000000000000000000019920000E5
:10403000199200000000000019920000199200007F
:104040000000000000000000000000000000000070
:104050000000000000000000000000000000000060
:104060000000000000000000000000000000000050
:104070000000000000000000000000000000000040
:104080000000000000000000000000000000000030
:104090000000000000000000000000000000000020
:1040A0000000000000000000000000000000000010
:1040B0000000000000000000000000000000000000
:1040C00010B5054C237833B9044B13B10448AFF352
:1040D00000800123237010BD70020020000000004A
:1040E000C02F010008B5034B1BB103490348AFF3D0
:1040F000008008BD0000000074020020C02F0100F5
:10410000704700687047FFFF10B581680446124889
:1041100001F0E2F80021104800F0C8FC0E4800F061
:10412000B9FC0E4968B90E4806F0FAFEA1680C48C1
:10413000102206F04DFF0B490948BDE8104006F07B
:10414000FDBE074806F0ECFEA1680548102206F007
:104150003FFF0549F0E700BF14030020992001004C
:1041600090140020C0200100D820010038B58168DB
:1041700005461D4801F0B0F800211B4800F096FCF0
:10418000194800F087FC0446C0B11849184806F0E9
:10419000C7FE0A222146164806F01AFF15491448A0
:1041A00006F0BEFE1022A968114806F011FF124960
:1041B0000F4806F0C3FE4FF0FF3038BD0222297AC7
:1041C000094800F06BFC084800F0A0FC0128F4DD71
:1041D000054800F0A1FC0446034800F09DFC40EABD
:1041E00004202860E9E700BF140300208C200100B0
:1041F0009014002098200100A520010070B5816076
:104200000446FFF781FF052600252046FFF7AEFF95
:10421000013E0544642007F003FB16F0FF06F4D1CD
:1042200005230949B5FBF3F50848656006F078FEFB
:104230001022A168054806F0CBFE0549034806F0A8
:104240007DFE204670BD00BF992001009014002023
:10425000C020010010B54468FFF788FF201A01282C
:10426000D4BF0020012010BD4069704713B5002362
:104270000268ADF800308DF80230ADF804308DF8EA
:1042800006301468019B0A466946A04702B010BD7B
:10429000012070474FF4C8707047FFFF10B501212F
:1042A0000446032007F030FA10232383014BE36117
:1042B00010BD00BF200004402DE9F84F00EB40077F
:1042C000FFB21F4DDFF87CB0013007EB470300243D
:1042D000894600EB40061D444FF0FF0AA046E31953
:1042E0009E422BDDDBB20C2B28D8B9F1520F0FD137
:1042F00004EB440305F803A02B4483F8018083F802
:1043000002809BF800100F4801F0AAF80134E6E79C
:10431000B9F1470F07D104EB4403802205F803806D
:104320002B445A70EBE7B9F1590FEAD104EB44037F
:1043300005F803A02B4483F801A0E0E7BDE8F88F5F
:10434000BC020020900700202DE9F74F494D07F0EF
:10435000A5FA2B68C01A642840F28880DFF83491EF
:10436000454F00240C2606FB04963046FFF772FFEB
:10437000A300DFF82481019300284ED007F08EFAC5
:104380003E4938603E4806F0CBFD102258F8241014
:104390003B4806F01DFE3B49394806F0CFFD4FF083
:1043A000000B5FFA84FA5C4513BF5FFA8BF047217C
:1043B000504652210BF1010BFFF77EFFBBF1040FBA
:1043C000F1D14FF00C0B07F069FA3B68C01A41F2CB
:1043D0008733984221D807F061FA2B68C01A642805
:1043E000F1D93046FFF736FF30B107F057FA3860A1
:1043F00007F054FA2860E6E78246544507D00BFBE5
:104400000A90FFF727FF10B107F048FA38600AF169
:10441000010ABAF1040FF0D1EAE71B49184806F087
:104420007FFD019B164858F80310102206F0D0FDBE
:104430001649134806F074FD3046FFF762FE0A2263
:1044400001460F4806F0C4FD013411490C4806F03E
:1044500075FD042C86D10024E0B247210134FFF71A
:104460002BFF042CF8D107F019FA286003B0BDE83F
:10447000F08F00BFE0020020B802002020210100E0
:104480009014002026210100492101005121010042
:104490005D210100E4020020000000209B4A9C49AD
:1044A000136843F080732DE9F0411360994A136853
:1044B00043F001031360984B00221A600A880A88AF
:1044C00022F010021204120C0A80447B027C121BA0
:1044D000D4B202684473527822B12244FF2AA8BFA2
:1044E000FF22D2B2C47C04FB0222C2F3072272B6BE
:1044F0001C6804F13C0C864C8568002D40F3038158
:10450000067BC57BAD1B0573467B057CAD1B4573E8
:10451000867B457CAD1B857372B61D68654509D9E0
:104520001D68A5EB0C05B5F5136F03D962B6002025
:10453000BDE8F0810E880D8825F010052D0446F0A9
:1045400010062D0C0727D3F800E0E645FBD3D3F87F
:1045500000C00E8012F0800F0CF13C0C00F0A9801E
:10456000D3F800E0ACEB0E0EBEF1160FF8D85200F7
:10457000013F0D80D2B2E6D11F68BC45FCD81F6850
:104580000E80120607F13C0C40F19B801A68ACEBE0
:104590000202162AFAD80D8007683A7832B190F8EC
:1045A0000CE07244FF2AA8BFFF22D2B290F812E0BA
:1045B0000EFB0222C2F307224FF0070ED3F8008051
:1045C000E045FBD3D3F800C00E8012F0800F0CF151
:1045D0003C0C7CD0D3F80080ACEB0808B8F1160F87
:1045E000F8D85200BEF1010E0D80D2B2E6D1D3F858
:1045F00000E0F445FBD8D3F800C00E8012060CF1A1
:104600003C0C6CD51A68ACEB0202162AFAD80D8065
:10461000BA7832B190F80EE07244FF2AA8BFFF22A8
:10462000D2B290F814E00EFB0222C2F307224FF040
:10463000070ED3F80080E045FBD3D3F800C00E800E
:1046400012F0800F0CF13C0C4FD0D3F80080ACEB93
:104650000808B8F1160FF8D85200BEF1010E0D800F
:10466000D2B2E6D1D3F800E0F445FBD8D3F800C0CD
:104670000E8012060CF13C0C3FD51A68ACEB02021E
:10468000162AFAD8258090F9152017448268076009
:10469000013A82607A782AB1457B2A44FF2AA8BF72
:1046A000FF22D2B2C57C05FB0222C2F3072262B60A
:1046B00022E7D3F800E0ACEB0E0EBEF1340FF8D8D1
:1046C00055E71A68ACEB0202342AFAD863E7D3F84C
:1046D0000080ACEB0808B8F1340FF8D881E71A680D
:1046E000ACEB0202342AFAD891E7D3F80080ACEBA5
:1046F0000808B8F1340FF8D8AEE71A68ACEB02023C
:10470000342AFAD8BEE762B6186811E7FCED00E07B
:1047100020000440001000E0041000E070B50646E0
:1047200088B00C4607F0C0F8338CC01A80B231282C
:10473000F8D9237B8DF81030637B8DF81130A37B83
:104740008DF81230E37B8DF81330237C8DF8143014
:104750002546637C8DF815302368019335F8123FA8
:10476000ADF81630AB788DF81830637D8DF81930C0
:10477000636801A8CDE90233A3690793FFF78EFEB2
:1047800048BB62B6322007F04FF872B6237B8DF833
:104790001030637B8DF81130A37B8DF81230E37BF2
:1047A0008DF81330237C8DF81430637C8DF8153030
:1047B000236801932B88ADF81630AB788DF818304C
:1047C000637D8DF81930636801A8CDE90233A369D0
:1047D0000793FFF763FE07F067F8308408B070BDF9
:1047E00070B5184B1A78013202F0070212F0010F6F
:1047F0001A700CBF00238023910748BF43F0400389
:10480000520748BF43F02003103300F10C01DAB225
:104810000F304FF480768B791BB196FBF3F30133A5
:10482000DBB203FB02242412CB70E5B23CB90C705E
:104830000BB1013BCB7001318842ECD170BD6C1ED5
:10484000F5E700BF8C02002030B58BB01546019310
:1048500082EAE273A3EBE273CDE9031305930AAB9B
:10486000827C33F8241DADF81E109B788DF8203023
:10487000012A044613D103A8FFF7B2FF03238DF8E2
:10488000213000239D420993BCBFFD238DF82130C8
:10489000236803A9DB69204698470BB030BD00238D
:1048A0000693ADF81C30E9E730B58BB005460193AF
:1048B0000AAB807C0592CDE9031233F8242DADF8C4
:1048C0001E209B788DF8203001284FF000040CD179
:1048D00003A8FFF785FF2B688DF821400994DB6959
:1048E00003A9284698470BB030BD0694ADF81C408C
:1048F000F1E7FFFF10B5094C2046FFF701FC04F17A
:104900000C00FFF7FDFB04F11800FFF7F9FB04F1C1
:104910002400BDE81040FFF7F3BB00BFE402002015
:10492000F0B54FF4165185B0284809F094FB28489B
:1049300000F0FCFA2749254806F000FB032001217E
:1049400006F0E2FE24480478BFF35B8F14F0010404
:1049500020D109F0D4FEE8B1204B4FF6FF729A81C6
:104960009A731A745A7401229A741D4A5C60FF216A
:10497000D97311685C619C6001B91360194A1168B0
:1049800001B18B60136000221A841348164A1A6022
:1049900009F0C1FE00230C2214491048144F154E93
:1049A00000F016FD002401AD57F824102846FFF74B
:1049B00025FC95E807000C2303FB04630134042C59
:1049C00083E80700F0D105B0F0BD00BF90140020CF
:1049D00014030020612101009002002094020020B5
:1049E000A4070020A807002000210100BC0200202D
:1049F00000000020E40200200020704703681B78BC
:104A0000092B0BD80A4A52F823303BB11A7F2AB13E
:104A10000279012A03D1032283F82E207047022A4B
:104A200001D10122F8E7032AF8D10222F4E700BFFE
:104A30008407002003681B78022B0BD80A4A52F81F
:104A400023303BB11A7F2AB10279012A03D1032214
:104A500083F82E207047022A01D10122F8E7032AA9
:104A6000F8D10222F4E700BF5C07002010B5037FF5
:104A7000044633B1437F3BB1D0F81C310BB13C301D
:104A800098470023237710BDD0F83031002BF8D0A1
:104A9000A430F5E7036801211B6B184710B40368C5
:104AA0009C6B0123A4465DF8044B604707B5037F68
:104AB0008DF8071063B1437FC3B190F82C309BB1E0
:104AC000D0F83834FE2B07D9012380F82D3043600D
:104AD000002003B05DF804FBC2189DF8071082F8AF
:104AE00033120133C0F838340120F2E7D0F828310E
:104AF000002BF9D001220DF10701A4309847F3E70C
:104B0000C0F840147047C0F84414704790F83C3423
:104B1000D0F83404C01A704790F83C34D0F83414FC
:104B20008B4202463FBFC118013391F8320382F82D
:104B30003C3428BF4FF0FF30704790F83C34D0F839
:104B4000342493423ABFC01890F832034FF0FF303C
:104B5000704790F82E30022B03D090F82E30032BA4
:104B6000F7D17047F8B5037F04460D46164693B15A
:104B7000437F4BB18F18BD420BD0236815F8011B42
:104B80001B6820469847F6E7D0F828310BB1A430CF
:104B900098473046F8BD1E46FBE7FFFF38B5037F58
:104BA00004460D4633B1437F23B1D0F81C310BB11D
:104BB0003C309847637FDBB1294BC4F880501A6AB8
:104BC00094F824305BB327490F23002284F8333054
:104BD0008D424FF0010384F8312084F8343015D130
:104BE0000E2384F83030FF2384F8323084F82F20ED
:104BF000237F53B1D4F800313BB104F17C0104F1BF
:104C00003C00984708B10023237738BD022284F87E
:104C10003020CC2284F8322084F82F30E8E7124B81
:104C20001B68C2F302618B400E49C2F302328D420F
:104C300023FA02F30D4AB3FBF2F303F1FF3208D07B
:104C40000B4B9D42D4D141F20F03238784F83720C8
:104C5000CEE741F61A320133228784F83730C7E7AE
:104C600000E00140A08601005C160020006CDC0220
:104C7000801A060017B4D0F8243101914BB10169B4
:104C8000019A00F59A742144A43003B05DF8044BF6
:104C90001847012003B05DF8044B70477FB54368A7
:104CA000019303681A78022A46D81A783B4B53F8C6
:104CB0002240002C40D0237F002B3DD0037A012BD3
:104CC00003D1032384F82E3036E0022B1DD10123BB
:104CD00084F82E30019E04F59A753246294604F276
:104CE00032300AF0CBFB0021C4F83464216184F82F
:104CF0003C14FF2228460AF0E5FBD4F84034DBB12F
:104D0000019804B0BDE870401847032B01D102237D
:104D1000D8E7042B12D184F82E302369019A13446A
:104D2000FE2B2DD801212046FFF7A4FF0290029B05
:104D300013B923690133236104B070BD052B09D178
:104D400084F82E30D4F84434002BF5D004B0BDE8FC
:104D500070401847062B18D1042384F82E3023699D
:104D6000019A1344FE2B0BD801992046FFF782FFCE
:104D70000390039B002BDFD1019A23691344DAE7E8
:104D800000212046FFF776FFD6E7072B01D1052348
:104D9000D6E7082BD0D1062394E700BF5C0700209C
:104DA000F0B580F825309DF8143080F83D340025AA
:104DB000DF234FF47A76C0E905121E4F0760012207
:104DC000C0E9015605610577427780F82450866274
:104DD00080F82C5080F82D50C0F80051C0F80451D4
:104DE000C0F80851C0F80C51C0F81051C0F8145167
:104DF000C0F81851C0F81C51C0F82051C0F8245117
:104E0000C0F82851C0F82C51C0F83051C0F83454C3
:104E1000C0F8385480F88A3080F88B3080F88C30B5
:104E200080F88D3080F8E43080F8E53080F8E630A6
:104E3000F0BD00BF702101002DE9FF414369002B47
:104E4000044603DA002004B0BDE8F0818269002A3C
:104E5000F8DB8B42F6DA8A42F4DAD9B202226846EB
:104E600002AE09F0CBFB30460322217E09F0C6FBDF
:104E700000203DF8101000258B1109B336F81520DD
:104E8000F2B183EA9217FF061AD181EA0207FF07FF
:104E900016D403F01F0312F00100236217D1022B76
:104EA000D0DCA3691D4D84F8240035F833101C4A6A
:104EB0001C4802F001F86369194A35F8331028E0FC
:104EC0000135032DD9D101300328D2D1BAE7092BFE
:104ED000B8DC12F4F04FA369134F104E11484FF095
:104EE000010584F824500CBF4FF080624FF0A0629F
:104EF0003A4311F4F04F36F833100CBF4FF080688E
:104F00004FF0A06801F0D8FF636936F8331048EA23
:104F10000702044801F0D0FF012094E7602201005D
:104F20001004010750150020100001007FB5012575
:104F30000577044600F0FBFA01462046FFF77CFFA8
:104F4000237F18402077002800F09580637F002B96
:104F500000F08C8023686E499B6A2046984794F83D
:104F60002430226A002B5AD06A4B43F822406A4B05
:104F7000C4F80031694BC4F80431694BC4F80831F6
:104F8000684BC4F80C31684BC4F81031674BC4F857
:104F90001431674BC4F81831664BC4F81C3104F166
:104FA0002F03C4F8A030644BC4F89830236A584AE1
:104FB00084F87C300023C4E9202394F82520C4E938
:104FC00024339A4204F17C030CBF01220222C4F86C
:104FD0009C300C2384F8882084F88930637F002B70
:104FE00000F08580236A8DF80C3094F8243004F1A9
:104FF0003C0504F17C0601950296002B72D004F06A
:105000007BFB01AA062104F071FD237F1840D4F830
:105010000031207731462846984750BB2BE047495E
:1050200084F8355041F82240454AC4F80021454AE9
:10503000C4F80421444AC4F80821444AC4F80C21A5
:10504000434AC4F81021434AC4F81421424AC4F820
:105050001821424AC4F81C2104F13502C4F8A020EA
:105060003F4AC4F8982084F836309FE794F82430FB
:105070001BB10023237704B070BD304A216A84F845
:10508000E33042F82140374AC4F82021364AC4F8B8
:105090002421364AC4F82821354AC4F82C21354A3F
:1050A000C4F83021226A84F8D820194AC4F8DC20D8
:1050B000B4F8F820A4F8E02094F8252084F8EA3029
:1050C000002A0CBF0122022284F8E22040F60C42A2
:1050D000A4F8E820284AC4F8EC2004F1D802C4E976
:1050E0003C237BE704F008FB01AA05218BE704F1D0
:1050F000D80504F001FB07212A4604F0F7FC237FC2
:1051000018402077D4F82031294604F1A40083E721
:10511000A08601008407002029680000C567000000
:10512000F96700001166000039660000456600005E
:105130005966000071660000FD4900005C07002010
:10514000F1790000FD77000031780000F17A00006D
:10515000B1760000BD760000D1760000FD7A000037
:10516000354A000091700000616F0000956F0000EB
:10517000C96F0000DD6F00009D4C00000022036835
:105180004277A0F8F810DB69184700224277A0F8B0
:10519000F810FFF7F3BF2DE9F8431F46037F0446DD
:1051A00091462BB3D0F8103153B300F13C0890F87E
:1051B000882040469847054668B9D4F8046156B13E
:1051C0009DF8243084F82E0083F001033A464946C6
:1051D0004046B047054606F061FB089BC61806F03E
:1051E0005DFBB04204D294F82E300BB9002DF6D0FE
:1051F00094F82E30012B0CBF38460020BDE8F88310
:105200000125E8E72DE9F8439946037F04469046D7
:10521000002B39D0D0F8103123B300F13C0790F8BF
:10522000882038469847054668B9D4F8086156B1D1
:105230009DF8243084F82E0083F001034A4641464D
:105240003846B047054606F029FB089B1E1806F0B5
:1052500025FB864208D994F82E302BB9002DF6D0C4
:1052600004200FE00125EEE7002DF9D194F82D3050
:1052700063B994F82E305BB194F82E30032B14BF31
:1052800000200220BDE8F8830620FBE70120F9E7B3
:105290000520F7E737B590F8FC5090F838340191C5
:1052A000826A0092294600F233220446FFF7AAFFE1
:1052B000002384F82C3003B030BD037F4BB10023B2
:1052C000012280F82D30C0F8FC1080F82C20C0F8A6
:1052D00038347047FFF7F1BFFFF7EFBF2DE9F34117
:1052E0001646027F9DF8205004460F469846002A35
:1052F00031D0B5B10368DB6A9847032D28BF032579
:10530000013DEDB2FF2D236807D0E90028FA01F135
:105310001B68C9B220469847F2E71B6B0021204664
:1053200098479DF82430FF2E28BFFF26003318BF72
:1053300001230193A36A009304F23232F3B2394697
:105340002046FFF728FF0023C4F8340484F83C34D7
:1053500002B0BDE8F0811046FAE707B501930023DB
:105360000093FFF7BBFF03B05DF804FB07B5002314
:105370000093122213210348FFF712FD03B05DF8DA
:1053800004FB00BF1403002037B50024ADF8004033
:105390008DF8024068B10D5D45B1135D33B1013345
:1053A00005FB033343431B0C0DF804300134032C7D
:1053B000F1D1009B0020DAB262F30700C3F30722A9
:1053C00062F30F20C3F3074363F3174003B030BD0C
:1053D000F8B5002B1646C8BF1E4603680446CCBF6E
:1053E000154600250F469B6805EB450598473D444B
:1053F0002368656066619B692046984740B1054A0D
:10540000054B93FBF0F0536883422CBF5360506010
:105410002046F8BD9007002040420F0070B50E4CAA
:1054200023685A1C8B420646226013DB0B4D06F0A4
:1054300035FA2B682268C01A4FF47A7303FB02F323
:1054400008BF0120B3FBF0F000237080236006F05A
:1054500025FA286070BD00BFAC070020B00700200F
:105460002DE9F74F264C05460E466B6833B106F022
:105470001BFA2368C01A6B689842F6D306F014FA38
:10548000EB6820601BB13046A968984706461D4B63
:105490001C684FF0000B5CB36B88A77CD4F80490B9
:1054A000D4F814A0632B236898BF84F812B004F1D9
:1054B0000F0204F10C013046D3F80480FFF764FFBB
:1054C0008DF80400C0F30723C0F307408DF80600F1
:1054D0008DF80530019BADF800301B0C8DF80230C3
:1054E0002046009B52464946C047A774A468D2E7AD
:1054F0001921284603B0BDE8F04FFFF78FBF00BF6A
:10550000A0070020A407002000207047044BFF22C2
:105510001A7000225A80DA604FF0FF329A607047AA
:105520009007002008B506F067F9002008BD1B2091
:105530007047FFFF37B501210D2006F0E5F8002187
:105540000D2006F0F9F868460722032109F056F805
:10555000BDF800301C4CC3F38413012568460722B4
:105560000521E55409F04AF8BDF80030C3F384136F
:10557000684607220621E55409F040F8BDF80030DE
:10558000C3F38413684607220921E55409F036F86D
:10559000BDF80030C3F38413684607220A21E5549E
:1055A00009F02CF8BDF80030C3F3841307220B2157
:1055B0006846E55409F022F8BDF80030C3F38413BF
:1055C000E55403B030BD00BFC2070020F0B44B78F3
:1055D0008E780A78CD780F4C1B013603A75C0C79C6
:1055E0004A7906F440562D02DBB205F4407133438C
:1055F00007F003050B43D201E101074C2B43C9B26D
:10560000064DA171D2B26380227205600020F0BC09
:10561000704700BF38230100004204405444570043
:10562000024B0020FF2218701A707047004204409D
:1056300070B5836A84B004460E46ABB193E80700A8
:1056400001AD85E807006168E26A097819601E719A
:105650009A601846636A9847A36A1BB195E80700E9
:1056600083E8070004B070BD01AD2B46EBE700BF37
:1056700030B4EFF30383103B5BB203F1C0011C4A6B
:105680001C4C52F821006FF3104042F8210054F8EE
:105690002330D3E906218A4212D018699C6868B188
:1056A00093F820500F2D18D9616840F82210D9695D
:1056B00001328A429A6103D030BC70476068F7E7D4
:1056C0005B680D4993F90330012203F01F005B0969
:1056D000824041F8232030BC7047072D03D8217940
:1056E0008154D969E4E7A48820F81240E0E700BFBC
:1056F00000600040D415002000E100E0F0B4EFF3BA
:105700000383103B5BB203F1C0022849284C51F8D7
:1057100022006FF3104041F8220054F823305C68F7
:105720005A69206ADD6910B1407801280FD0AA4279
:105730000BD0D3E9020129B193F820400F2C16D9E0
:1057400051F82210416001325A61F0BC70476E1E60
:10575000964214D021690029E9D094F90310154C20
:1057600001F01F064909B04044F82100DFE7072C8B
:1057700095BF895C31F8121001718180E3E794F9DB
:10578000036006F1C0077409A40051F827C004F1B2
:10579000604404F5614406F01F06B0406FF3104CFE
:1057A00041F827C0C4F880012060C0E700600040D5
:1057B000D415002000E100E070B4EFF30383103B48
:1057C0005BB2304A304C03F1C00152F821006FF354
:1057D000104042F8210054F823008268D2789207E2
:1057E00005D54268527A012A01D070BC7047590928
:1057F00020310122254C03F01F0302FA03F344F881
:105800002130BFF34F8FBFF36F8F436893F902309E
:10581000002B2EDB5909203103F01F0302FA03F39A
:1058200044F82130BFF34F8FBFF36F8FD0E90114DD
:10583000237891F902106FF386130029237014DB8B
:1058400001F1C0050F4C4B099B0054F8256003F192
:10585000604303F5614301F01F018A406FF3104676
:1058600044F82560C3F880211A60012170BCFFF75D
:10587000DFBE826813786FF386131370012170BC4A
:10588000FFF7D6BE00600040D415002000E100E024
:10589000F8B5EFF30384103C314B64B253F8246045
:1058A000736893F90230002B42DB5A092032012041
:1058B0002C4903F01F0300FA03F341F82230BFF331
:1058C0004F8FBFF36F8FD6E90112137891F9021051
:1058D0006FF386130029137015DB01F1C007224D09
:1058E0004B099B0055F827C003F1604303F5614362
:1058F00001F01F0100FA01F16FF3104C45F827C0C9
:10590000C3F880111960D5780023EDB2D3702A074F
:1059100021D4EB0712D405F01405142D16D0C03491
:10592000114B53F824206FF3104243F82420F8BDA4
:10593000B26813786FF386131370E4E704213046DE
:1059400005F01405FFF774FE142DE8D13046082148
:10595000FFF76EFEE3E705213046FFF769FED8E763
:10596000D415002000E100E00060004070B50D4655
:10597000016A8B7803F07B038B700378044623B3B2
:10598000C0E90352E369186988B122697AB1A37842
:10599000816800688E68E16803F00303013B22FA26
:1059A00003F300229BB22261B04768B9216A8B7869
:1059B00043F080038B70207878B9A37803F0030359
:1059C000022B0CD02B78CB7070BD837803F00303CF
:1059D000D21A2B44C0E90332D4E7002070BD2B88D3
:1059E00043F47E43CB8170BD036A9A7870B4D2B21F
:1059F000054602F00B004E780C7898700020E860A5
:105A00008D785D701D7866F301051D70C9789974F5
:105A1000DD7904F05C0105F0A304214302F07B0270
:105A2000D97170BC9A707047F0B5846A85B006462B
:105A30008C461746BCB194E80F006D4685E80F0010
:105A4000F269F36A12782260E360C4F808C0277133
:105A50002046736A9847B46A1CB195E80F0084E841
:105A60000F0005B0F0BD6D462C46E9E770B5D0E9F2
:105A7000072592F905202F490446500901232030BB
:105A800002F01F02002603FA02F26660AE7041F8CF
:105A90002020BFF34F8FBFF36F8FE26992F90B2085
:105AA0005009203002F01F0203FA02F241F82020D0
:105AB000BFF34F8FBFF36F8FE26992F90720500950
:105AC000203002F01F0203FA02F241F82020BFF357
:105AD0004F8FBFF36F8FE26992F909205009203090
:105AE00002F01F02934041F82030BFF34F8FBFF305
:105AF0006F8FE369DA6822B1936810681B6A984770
:105B0000E3691B691BB19A681868136A9847EFF339
:105B10001082012383F31088E069074900784C68FC
:105B2000C0F11F00834023434B604B6882F3108811
:105B3000002070BD00E100E0FC6F04402DE9F84357
:105B40000D4609780323CB4013F0010301F10072E5
:105B500018BF1023037002F56052837852010121AF
:105B6000026204466A78C56161F30103D5E9051054
:105B700061620021A370C4E90A1022B9DBB20222DB
:105B800062F30103A37095F90B60674BA87A720961
:105B9000203206F01F07012101FA07F743F82270AF
:105BA000BFF34F8FBFF36F8F604A614F06F1C00C98
:105BB00003EB060852F82CE000016FF3104E42F898
:105BC0002CE0C0B288F8000395F9050047F826409C
:105BD0004FEA501C0CF1200C00F01F0E01FA0EFED3
:105BE0002E7943F82CE0BFF34F8FBFF36F8F00F196
:105BF000C00C03EB000852F82CE036016FF3104E96
:105C000042F82CE0F6B288F8006395F9076047F88F
:105C100020404FEA561C0CF1200C06F01F0E01FA32
:105C20000EFEA87943F82CE0BFF34F8FBFF36F8FC0
:105C300006F1C00C03EB060852F82CE000016FF3EC
:105C4000104E42F82CE0C0B288F8000395F9090024
:105C500047F826404FEA501C00F01F060CF1200CBC
:105C6000B1402E7A43F82C10BFF34F8FBFF36F8FE4
:105C700000F1C00C310152F82C600344C9B26FF33B
:105C8000104642F82C6083F8001347F82040EB6878
:105C9000F3B15968266A0A68E7694FF4002C701D51
:105CA000C2E900C094F800C0BCF1000F01D0113669
:105CB00056607E7836B9D67801270B3067F3051623
:105CC0005060D6709A68186813689847064640BBBB
:105CD0002B69002B2ED05968266A0A68E7694FF0B5
:105CE000006CF01CC2F800C0906094F800C0BCF1D9
:105CF000000F01D00F3696607E7836B9D67801272E
:105D00000B3067F305169060D6709A6818681368B0
:105D10009847064670B1EB681BB19A681868136A19
:105D200098473046BDE8F88300E100E0006000409D
:105D3000D4150020EFF31082012383F310889B49D0
:105D40002E784868C6F11F06B34020EA03034B6073
:105D50004B6882F31088236A00229A701A715A7273
:105D60009A72DA725A83297840F20722CA40D2071F
:105D700044BF4022DA7406221A772278E16972B1B0
:105D8000C868013A002800F008810120120392B28D
:105D9000024342F006009882988A8242FCD1EE7853
:105DA0006A78A878F600032A46EA001600F0E28036
:105DB000002A0CBF4FF0E20E4FF0F20EED696A7848
:105DC00095F802C02F7B2878F6B2D2014FEA4C1C1E
:105DD0001E700CF0200C7F00D2B2861E07F0020766
:105DE00042EA0C02012E4FF0000C83F806E05F73CC
:105DF00083F808C040F2C8806E68D2B2DA71B27817
:105E00005A701F7896F801C032786CF301071F7042
:105E1000F6789E74DE7902F05C0206F0A306324347
:105E2000DA7191F905C0624E0027C4E90377C4E92D
:105E300005770CF1C00200F0030056F822E067F38A
:105E4000104E46F822E04FEA5C12920091F90B8066
:105E500002F1604202F561420CF01F0E4FF0010C9E
:105E600008F1C0090CFA0EFEC2F880E1C2F800E0A9
:105E700056F8292067F3104246F829204FEA5812B5
:105E8000920091F907E002F1604202F5614208F0E8
:105E90001F080EF1C0090CFA08F8C2F88081C2F898
:105EA000008056F8292067F3104246F829204FEA6F
:105EB0005E12920091F9091002F1604202F561420E
:105EC0000EF01F0E01F1C0080CFA0EFEC2F880E1C0
:105ED000C2F800E056F828E067F3104E46F828E0D4
:105EE0004A0992006D8902F1604202F5614201F0B7
:105EF0001F014FF6FF760CFA01F140F07000B54239
:105F0000C2F880111160987025812DD0EFF31081B7
:105F10008CF31088274A13681BB927484025C370A3
:105F2000C57013680133136081F3108821892348F9
:105F30000B0A1B0153FA81F150F8213023F00113B1
:105F400023F4404343F0040340F82130EFF3108181
:105F5000012383F31088136813B11368013B1360A6
:105F6000136863B181F31088154B636000263046D7
:105F7000BDE8F88346F040064FF0F20E1EE70E4AE9
:105F80008020D370D070EDE7022808BF42F01002E5
:105F9000FF26D2B25E70DA7143E7C869007A10401A
:105FA000000200F4706040F00100EFE6FC6F044076
:105FB00000600040D0150020000D0440000804409F
:105FC000554943532DE9F04F9B46FF258024634BF1
:105FD0008BF802508BF80340614C1B6A2668614CB9
:105FE0009BF80050C3F302678BB0BE40C3F302338B
:105FF00026FA03F300910992A3FB0412CDE90212E1
:1060000000266FF3820506931B0ACDE907068BF87D
:106010000050204605930196099B834276DA9DF84D
:10602000203004930027504B049ADD5DC5F34009EE
:10603000C5F3800549EA050393425FD14B4B33F822
:106040001780079B03FB08F8069BB3FBF8F4661E5A
:10605000FF2E53D804FB08F4824621E0059AB4FBD6
:10606000F2F27F2A02FB03F354D9002BB8BFFF33AF
:106070001B12A3F5C333A03B002BB8BF5B429A456C
:106080004ADC9BF800309DF804208BF8032043F095
:106090000403A4EB08048BF80030002E3AD0013E34
:1060A0002246E317DDE9020109F000F8A0F5C3304C
:1060B000A038009A00F5C333A033002ACED10028BF
:1060C000B8BF4042824525DD274B9BF80110DA5DC1
:1060D0009BF800308BF80260C2F3000464F386136F
:1060E00069F3041365F3C303C2F3C10262F3010150
:1060F0008BF80030009B8BF80110019301370D2FB6
:1061000091D1089B1BB3099B984223DC00200BB064
:10611000BDE8F08F5046F1E713498BF80260C85D87
:106120009BF800100192C0F3000C6CF386119BF8F1
:1061300001C069F30411C0F3C10065F3C30160F34A
:10614000010C9A468BF800108BF801C099E70123E7
:10615000089361E703200BB0BDE8F08F00E0014039
:106160005C160020A086010040230100502301009E
:10617000F0B4EFF30383103B5BB203F1C001324A8A
:10618000324C52F821006FF3104042F8210054F8CD
:106190002300C2690369126992B10BB1F0BC704768
:1061A000026A9378446A03F07F0343F004030021FA
:1061B0009370C160002CF1D08022F0BCFFF734BC9A
:1061C000026A002BEDD00678E6B1D48AC4F3042429
:1061D000B4422DD28578C16805F0030C654609E00C
:1061E0000F78D77301345B1B2944B442C0E9031311
:1061F0001ED223B3BCF1020FF2D10F8847F47E47C1
:10620000D781EFE78178C46801F00305022D0AD039
:106210002578D57001F003029B1A2244C0E90323BC
:10622000002BBBD1BCE7258845F47E45D581F1E73D
:1062300011796FF3C7111171002BAFD1B0E711794C
:1062400063F3C7111171ACE700600040D415002062
:1062500030B583B0EFF30383103B5BB203F1C001B1
:10626000554A564C52F821006FF3104042F8210075
:1062700054F82340E369DB6873B1A36963B1636ACF
:106280000021C4E90511002B70D02046012203B083
:10629000BDE83040FFF7C8BB22894FF6FF739A4232
:1062A00020D0EFF31081012383F31088444B1A6848
:1062B0001AB944484025C270C5701A6801321A6084
:1062C00081F3108822894049130A1B0153FA82F294
:1062D00051F8223023F0011323F4404343F0050327
:1062E00041F822302278236A002A41D0D98AC80690
:1062F00013D01B8AC3F308030193A369002B41D178
:10630000636A2BB1042201992046FFF78DFB2278A6
:106310002AB1236AD98AC906E6D1BE221A71238915
:106320004FF6FF72934221D01A0A120152FA83F2F9
:10633000254951F8223023F0011323F4404343F060
:10634000040341F82230EFF31082012383F3108815
:106350001B4B196811B11968013919601B681BB909
:1063600018498020CB70C87082F3108803B030BD0C
:10637000A17801F003010229BBD05B790193A369E5
:10638000002BBDD0A278606902F0030201A909F0D8
:1063900075F8D4E90521A37803F003031A44C91A58
:1063A000C4E9052129B9636A1BB101222046FFF720
:1063B0003BFB2278ACE700BF00600040D415002012
:1063C000D0150020000D04400008044010B5EFF384
:1063D0000384103C0B4B64B253F82400D0E908212D
:1063E000937803F07B03937019B102220021FFF729
:1063F0001BFBC034044B53F824206FF3104243F8C6
:10640000242010BDD41500200060004070B5EFF3CB
:106410000384103C164B64B253F824000278036ADC
:106420003AB9827802F00302022A02D05979C9B23D
:1064300002E0198AC1F308011D79EDB2EE0605F0FC
:10644000380204D51D7FED0758BF42F040021D7988
:10645000466A05F0C7051D710EB1FFF7E5FAC034B5
:10646000044B53F824206FF3104243F8242070BDEE
:10647000D41500200060004070B5436A84B0044623
:106480000E46ABB193E8070001AD85E807006168EF
:10649000A26A097819601E719A601846236A9847A3
:1064A000636A1BB195E8070083E8070004B070BD7C
:1064B00001AD2B46EBE700BF10B4EFF30383103BB5
:1064C0005BB203F1C001144A144C52F821006FF37F
:1064D000104042F8210054F823305A69D9698A42A1
:1064E00006D2D3E90240A8B1805CE07001325A6163
:1064F000914202D05DF8044B70471A69002AF9D125
:106500009A685DF8044B937803F07B0343F004032F
:1065100093707047E070E9E700600040D4150020F8
:1065200010B4EFF30383103B5BB203F1C001174AD1
:10653000174C52F821006FF3104042F8210054F834
:1065400023305A69D9698A4206D2D3E90240D0B1D0
:10655000805CE07001325A619A698A4207D2986879
:1065600019694079541C9C618854D3E906219142F1
:1065700006D19A68937803F03B0343F004039370C9
:106580005DF8044B7047E070E4E700BF0060004036
:10659000D415002010B5EFF30384103C64B20A4B0D
:1065A00053F824008268937803F003039370012169
:1065B000FFF762FFC034054B53F824206FF31042FD
:1065C00043F8242010BD00BFD41500200060004017
:1065D00010B5EFF30384103C64B20B4B53F8240066
:1065E00083689A7802F003029A70842219791A71EA
:1065F0000421FFF741FFC034044B53F824206FF30C
:10660000104243F8242010BDD41500200060004043
:1066100010B40346F0241A69D96900209070D4722E
:1066200093F82A2083F82C20186283F830005962EE
:106630005DF8044B704700BF0346002059601A7292
:10664000704700BF10B40446C4E90E3200206163F5
:106650005DF8044B704700BFC368044A9B1AB3FA45
:1066600083F35B090B700020704700BF433249532E
:1066700010B50269016804460023F02093709370FE
:10668000D07294F82A2084F82C208A69E069236269
:1066900084F83030E360606222B1936810681B6A4E
:1066A000984721684B691BB19A681868136A984724
:1066B000EFF31082012383F31088206806490078E5
:1066C0004C68C0F11F00834023434B604B6882F34A
:1066D0001088002010BD00BFFC6F044003685B6998
:1066E000A3B190F82D2070B502F0FF056AB90446F9
:1066F0009A6818689668238CA1692A46B047E269AF
:1067000025620123626284F8333070BD704700BF98
:10671000002380F82F3080F8313080F8333090F843
:106720002D2090F82A1080F82B1010B5C46904624F
:1067300080F82C30436212B1012380F831300268B6
:1067400003695269B42199706AB1526800211268D4
:10675000997090F82D40FCB94FF000611160232131
:10676000B42299729A7090F83020CAB190F82A2019
:106770000021012A044680F8301014D094F8292012
:10678000DA7094F82B2094F82C30013A013384F815
:106790002B2084F82C3010BD094C11605460DEE7CA
:1067A0005122DA7210BDFFF799FF94F82A30012BBD
:1067B00003D194F828202369E2E72369DEE700BFCC
:1067C0006A23010010B5047A80F82E30012CC0E94C
:1067D00006120AD1436880F82A405B0043F00103A7
:1067E000002280F8283080F82920012380F82D30FD
:1067F000FFF78EFF002010BD10B5047A80F82E3010
:10680000012CC0E9061208D1436880F82A405B00D9
:10681000002280F8283080F82920002480F82D40BC
:10682000FFF776FF204610BD2DE9F04704460B78B0
:106830000E6A8A680D4603F10073097B0560E869FA
:10684000E66303F560536260AA6921725B0100216F
:1068500082B02361C4E90D01BAB15168D2F808C011
:106860000E6895F90E7003C9053373604FF4002369
:1068700033606B4683E80300DCF8006010680F703B
:106880001946B047002840F0D1806B69CBB15968F8
:1068900022690F68266803C9033296F90FC0BA60EF
:1068A0004FF0000E6A46C7F800E082E803009868DF
:1068B000066881F800C018681146B047002840F00B
:1068C000B880EFF31082012080F310885F492B78A5
:1068D0004E68C3F11F0300FA03F326EA03034B607B
:1068E0004B6882F3108822682369576A95F90F1064
:1068F00095F9102095F80DA095F90E603D78DFF818
:1069000058E1DFF858814FF0000C4FF0F00983F8A0
:1069100002C083F80B9097F8029009F0030983F8FE
:106920000090AD004FF0FA0983F8069045F020057D
:1069300097F8019083F80190EDB2DD717D791D72B9
:10694000FD789D7497F80490414F4FEAC90949EAD0
:1069500000095FFA89F983F809904FEA0A154FF0A8
:1069600023090EEB010A83F80A90EDB201F1C00988
:1069700083F80DC08AF800534B0948F8214057F8B6
:1069800029A09B0003F1604303F5614301F01F015F
:106990006CF3104A47F829A000FA01F10EEB020946
:1069A000C3F88011196002F1C001530989F800533E
:1069B0009B0048F8224057F8219003F1604303F50B
:1069C000614302F01F0200FA02F26CF310496645BF
:1069D00047F82190C3F880211A6018DBB64406F10D
:1069E000C00273098EF800539B0048F8264057F800
:1069F000221003F1604303F5614306F01F06B04027
:106A00006CF3104147F82210C3F880011860002091
:106A1000C4E908000F4B84F82D00A06184F82E0013
:106A2000E06184F82F00E36084F8300002B0BDE834
:106A3000F087AB69002BF9D09A681868136A9847F9
:106A400000283FF43EAF02B0BDE8F087FC6F044081
:106A5000006000404332495300E100E0D4150020BB
:106A6000F0B5856B83B004460F4635B395E8030057
:106A70006E4686E803002368E16B5A6929602F712E
:106A80003AB194F82D1021B9936810681B699847A2
:106A900023689B6933B194F82D201AB19A6818685D
:106AA00013699847636B28469847A36B1BB196E818
:106AB000030083E8030003B0F0BD6E463546DAE715
:106AC000EFF30383103B5BB2C033044A52F8231048
:106AD0006FF3104142F82310704700BF0060004080
:106AE000F8B5EFF30383103B5BB2C033624A52F850
:106AF00023106FF3104142F82310EFF30383103B90
:106B00005BB25E4A52F8234021690B7B13F001030C
:106B10002CD194F82C2094F82A00904216D094F8A6
:106B20002D300BB1022A43D02046FFF7D7FD236951
:106B300094F82820DA7094F82B2094F82C30013A3D
:106B4000013384F82B2084F82C30F8BD94F83320DE
:106B500002F0FF054ABB236ABBBB94F82E3053B347
:106B600052220123CA7284F83030F8BD94F82D30D7
:106B70009BB194F8313083B9636AA2694979D154E1
:106B8000D4E9082394F82E10013A0133C4E908230C
:106B9000A1B923695422DA72F8BD002001225423DE
:106BA000206284F82F20CB72F8BD84F83330F8BD12
:106BB0005223CB72F8BD5423CB72F8BD2269522107
:106BC0000123D17284F83030F8BD94F82D20002ACA
:106BD00032D094F83120002A37D0226884F831501E
:106BE0005069002841D09269002A3ED0E669022E01
:106BF0003BD9936810689F68A269B31EF4268E7013
:106C00009BB22946B8472268E369526991681068C7
:106C10008E68023B9BB22A462946B047E369216948
:106C2000023B0220C4E90803012284F83320002338
:106C3000FF228B72CA70F8BD626AA569501C013BC5
:106C4000AA5CC4E90830CA70F5E7636AA2694979A9
:106C5000D154D4E90832013B0132012B2169C4E946
:106C6000083204D0FF22CA70E5E7012BDFD82023C9
:106C7000FF228B72CA70DEE700600040D41500204E
:106C800038B5EFF30383103B5BB2374A52F8234029
:106C90002269D37A6FF3C303D37294F82F30002B99
:106CA00039D103F0FF0094F82A1094F82C3099425F
:106CB00020D1236A8BB994F82D1094F83000002964
:106CC0000CBF03210221C8BBF023D372937803F0D9
:106CD000CF0393702046FFF7C3FEEFF30383103B0F
:106CE0005BB2C033214A52F823106FF3104142F8CF
:106CF000231038BDB3B9012924D094F8290000210C
:106D0000D172D07094F82B200133013A84F82C30E2
:106D100084F82B20E1E7F0232046D3720121FFF70E
:106D20009FFEDAE794F82D5005F0FF0145B1022BE4
:106D3000E5D194F8290040F00100E0E7D372C9E7FB
:106D40000846DCE72046FFF7C9FC94F82A30012BFF
:106D500005D194F82800226994F82C30CFE72269F5
:106D600094F82C30C9E700BFD41500200060004023
:106D7000F0B583B0EFF30384103C64B2144B53F8C6
:106D80002450EF68BFB16A682B6992F90D20121B7D
:106D900018BF0122CBB193E803006E4686E80300DA
:106DA000696959601A701846B8472B691BB196E893
:106DB000030083E80300C034064B53F824206FF32C
:106DC000104243F8242003B0F0BD6E463346E7E797
:106DD000D415002000600040EFF30383103B5BB24A
:106DE0000649074A51F823100120C033087252F8AF
:106DF00023106FF3104142F823107047D415002080
:106E000000600040C8B20123834098B252B1002311
:106E1000090A490101F1804101F5802103438B609A
:106E2000002070471B041046F2E700BFF8B50028A9
:106E30003BD009681E4F4FF0000C01EBC0006646C6
:106E40004FF0010E8D8840F2024295424FF0000350
:106E50000BD10C680EFA03F204F0B854D2B2B4F1BC
:106E6000807F0CBF164342EA0C0C0133032B06D083
:106E700037F813209542ECD00133032BF8D10831B9
:106E80008142DFD16FEA0C0C5FFA8CF4012002F032
:106E90007DF9084B93F8BB241643264083F8BB6466
:106EA0000120BDE8F84002F041B90646FF24EDE7B5
:106EB0006C23010000E00140F0B585B004AB02A8EE
:106EC00043F80C0D01260C46304619461546ADF820
:106ED0000C400292ADF80060FFF7A8FFEFF31081BD
:106EE00086F310881B4B1A681AB91B484026C270DB
:106EF000C6701A6801321A6081F31088200AEA030A
:106F0000E4B24FEA00100BD50119144A52F821706F
:106F100025F480366FF3104742F8217042F8216063
:106F200020440E4A42F82050EFF31082012181F3F1
:106F30001088196811B11968013919601B681BB9EB
:106F400005498020CB70C87082F31088002005B0FE
:106F5000F0BD00BFD0150020000D04400008044023
:106F6000034630B40124806883F82140002483F86C
:106F7000234005799C6145F01005C3E90422D960DE
:106F80000571027964F3C3020271204683F824403C
:106F900030BC7047034630B48068002483F8214039
:106FA00083F8234005799C6145F01005C3E904226C
:106FB000D9600571027964F3C3020271204683F837
:106FC000244030BC704700BF10B40446C4E90B3203
:106FD0000020A1625DF8044B704700BF016891F981
:106FE0000F1070B44E098568274C024601232036E5
:106FF00001F01F01002003FA01F15060E87144F82C
:107000002610BFF34F8FBFF36F8F116891F90C10EB
:107010004D09203501F01F0103FA01F144F8251054
:10702000BFF34F8FBFF36F8F116891F90D104D09AA
:10703000203501F01F0103FA01F144F82510BFF3D8
:107040004F8FBFF36F8F116891F90E104D092035E6
:1070500001F01F0103FA01F144F82510BFF34F8F2F
:10706000BFF36F8FEFF3108183F310881468074A22
:1070700024785568C4F10904A3402B435360536836
:1070800081F3108870BC704700E100E0FC6F0440A1
:107090002DE9F0430A78034602F58002D1E9054064
:1070A00002F5A6621202002519609A609C62C3E98B
:1070B0000B50EFF31080012282F310887E4C0E7883
:1070C0006168C6F10906B24021EA020262606268A4
:1070D00080F3108819689A68CE698C7A83F82350F7
:1070E0001F27B07817705F271770012C4FF0DF074C
:1070F000177000F0DA800D89EC0904F0060444F002
:107100000104EDB2D4729572CC7A4F686B4DE400F5
:1071100044F00104E4B24FF0020C947182F803C011
:10712000347876782401AF4204F0700444F0080407
:1071300046F0E00614BF00256FF07F05002800F040
:10714000AC8045F07D05EDB20138557147B216743B
:10715000947091F812E091F90F00DFF870C1584D6A
:10716000584C594E47EA8E17FFB24FF0A0084FF027
:107170009F0E177182F8078082F800E04A7C0CEBC2
:1071800000071201D2B287F8002300F1C00E45F8C3
:107190002030420954F82E80920002F1604201270B
:1071A00002F561426FF3104800F01F0044F82E8092
:1071B00007FA00F0C2F88001106091F810E091F930
:1071C0000D004FEA0E1E0CEB00025FFA8EFE82F8F5
:1071D00000E345F8203000F1C00254F822806FF33C
:1071E000104844F822804FEA501891F90E204FEAD7
:1071F000880808F160480CEB020908F5614800F0C6
:107200001F0007FA00F0C8F88001C8F8000089F8EC
:1072100000E302F1C00045F8223054F820806FF3FB
:10722000104844F82080500991F90C10800000F1BA
:1072300060408C4400F5614002F01F0207FA02F240
:10724000C0F8802101F1C00802608CF800E34A090F
:1072500045F82130920054F8285002F1604202F5BE
:10726000614201F01F0100208F406FF310450221A1
:1072700044F82850C2F88071176083F82400C3E9ED
:10728000030083F82110C3E9050083F82200D861C8
:107290005E6083F82000BDE8F08345F05D05EDB247
:1072A000557107461674947053E70C7AD5726400D2
:1072B000E4B2947228E700BFFC6F044040420F0024
:1072C000D4150020006000405343324900E100E043
:1072D000F0B5C36A85B005460E4617469BB193E8E4
:1072E000070001AC84E807002A6B1A605F601E7219
:1072F0001846AB6A9847EB6A1BB194E8070083E82D
:10730000070005B0F0BD01AC2346EDE770B50123E1
:10731000856880F820300226B323EB7180F8216065
:107320006B79C26904466FF300036B710D46FFF77A
:10733000CFFFA368DE705A7942F001025A7194F8C7
:107340002120012A05D094F821200AB9052D04D066
:1073500070BD042D01D0082DF5D194F82320002A0A
:10736000F6D194F821201AB95A7A02F0F3025A722F
:10737000BF210122D97184F8232070BD836810B425
:10738000A0220024DA7180F8204080F822405A7947
:1073900064F300025A7190F824206AB9DF249F2216
:1073A0001C701A7000240223C26980F82130C46165
:1073B0005DF8044BFFF78CBF5C72F3E730B583B028
:1073C000EFF30383103B5BB2C033424A52F8231001
:1073D0006FF3104142F82310EFF30383103B5BB2CD
:1073E0003D4A52F8234094F82220A368AAB901220A
:1073F00084F82220DA7CD2B28DF805209DF8052091
:1074000012F0010F5A7A14BF02F0F70202F0F302F1
:107410005A72AC22DA7103B030BD94F820204AB918
:107420001B7A13F0080F0CBF042108212046FFF738
:107430006DFFA368226962B1A1698A421DD0E2682A
:10744000DB7C481CA0615354E3690133E36103B062
:1074500030BDD97CC9B28DF806109DF80610197997
:1074600041F010011971197941F008011971197968
:1074700062F30411197103B030BD022584F8215064
:107480005979E2696FF30001597120460621FFF72F
:107490001FFFA3682169DD705A7942F001025A7119
:1074A00091B9DA7CD2B28DF807209DF807201A79BD
:1074B00042F010021A711A7942F008021A711A7910
:1074C00061F304121A71A6E7A269E168DB7C501C23
:1074D000B8E700BF00600040D415002038B5EFF3D6
:1074E0000383103B5BB2C033224A52F823106FF380
:1074F000104142F82310EFF30383103B5BB21E4AA6
:1075000052F8234094F8203093B194F8213003F0DE
:10751000FF0263B9A3692069A16898420DD0E269AE
:10752000E0680132C05C88740133C4E9063238BDBA
:1075300005212046FFF7EAFEE7E723680D4893F9A7
:107540000E3003F1C004002B50F8245062F31045B4
:1075500040F8245009DB5A09603203F01F03012070
:10756000064C00FA03F344F82230CB7943F0400391
:10757000CB7138BD00600040D415002000E100E070
:1075800038B5EFF30383103B5BB2204A52F8234037
:10759000A1680B79C3F38003BBB1CB796FF386137A
:1075A000CB71C02301E0013B02D0CA795206FAD464
:1075B000EFF30383103B5BB2C033154A52F823103C
:1075C0006FF3104142F8231038BD022584F8215092
:1075D0004879E26963F30000487107212046FFF70C
:1075E00077FEA168CD704B7943F001034B7194F89D
:1075F0002130002BD1D1A369E269E0680132C05C7F
:1076000088740133C4E90632C7E700BFD4150020EF
:107610000060004000B583B0EFF30383103B5BB222
:10762000214A52F823008268537ADBB299072FD19E
:1076300013F00C0F1FD0012380F8243090F8213074
:10764000012B2ED0026983699A4228D9C369013B74
:10765000C3610321FFF792FEEFF30383103B5BB29C
:10766000C033124A52F823106FF3104142F823102E
:1076700003B05DF804FBDB06EED5D37CDBB28DF8FE
:1076800007309DF80730D37903F0EF03D371E3E7B8
:10769000002380F824300121FFF770FEDCE703218E
:1076A000D8E70221D6E700BFD415002000600040D3
:1076B0000346002059601A72704700BF10B4044698
:1076C000C4E90E32002061635DF8044B704700BFCF
:1076D000C368044A9B1AB3FA83F35B090B7000205A
:1076E000704700BF4349495230B5836B83B00446AD
:1076F0000A46ABB193E803006D4685E80300E16BF1
:1077000019601A711846636B9847A36B1BB195E813
:10771000030083E80300002384F82B3003B030BD5E
:107720006D462B46EBE700BFF0B4324B02691B6A93
:1077300082B003F00F2301930199019D137C90F80F
:107740002C4094B9C1F30321DBB2A1EB15618B404E
:107750009B0805D1082002B0F0BC7047013BF9D06E
:107760005178C909FAD1B323D371002390F82610B8
:10777000046880F8283080F82710616A85690F78DE
:107780004E7880F82B30012F14BF0421052141EAE7
:107790004601C9B280F82D30036280F82E30C561F1
:1077A00080F82F3080F83030D170517994F90F3053
:1077B00041F00101002B517108DB0F4903F01F0458
:1077C00001225B09A24041F823200269BF23D37143
:1077D00090F82C1001F0FF0331B1002380F82C3019
:1077E000184602B0F0BC704702211846517002B032
:1077F000F0BC704700E0014000E100E010B4047A02
:1078000080F82A30012CC0E905120AD1436880F8BB
:1078100026405B0043F00103002280F8243080F80A
:107820002520012380F829305DF8044BFFF77CBF49
:1078300010B4047A80F82A30012CC0E9051208D16E
:10784000436880F826405B00002280F8243080F8EE
:107850002520002380F829305DF8044BFFF764BF32
:107860002DE9F04FD0F800800469D8F82450D8F8FA
:1078700004A095F800E095F801B0DFF868C1DFF8E2
:107880006891DFF868811F2626705F27DF26277042
:1078900026702F799DF9286047F0E0072774EF786C
:1078A00047F0E0076774AF789DF92450BEF1010FEF
:1078B0004FEA07170CBF4FF0050E4FF0040E07F00C
:1078C00070074EEA4B0E47F00807A7700CEB060B4B
:1078D000CA450CBF4FF0F7094FF077095FFA8EFEEB
:1078E0004FF0000AB327090184F803E0C9B284F815
:1078F000059006F1C00E84F806A0E771384F8BF8AA
:10790000001348F8260057F82EB04FEA56194FEAF0
:1079100089096AF3104B09F1604947F82EB009F55F
:1079200061494FF0010E06F01F060CEB030B0EFA37
:1079300006F6C9F88061C9F8006003F1C0098BF848
:1079400000135E0948F8230057F829B0B60006F185
:10795000604606F5614603F01F036AF3104B0EFA0A
:1079600003F347F829B00CEB0509C6F88031336002
:1079700005F1C00389F800136E0948F8250057F88F
:107980002390B60006F16046944406F561466AF31A
:10799000104905F01F0547F823900EFA05F502F18E
:1079A000C009C6F8805135608CF8001348F82200F1
:1079B00057F8291053099B0003F160436AF3104103
:1079C00047F8291003F5614302F01F020EFA02F294
:1079D0009F20C3F880211A602070BDE8F08F00BF9F
:1079E0000060004000E100E040420F00D41500209C
:1079F000F0B50B788F6891F80CC0D1E9076203F5F8
:107A0000800303F5A6631B02002583B004460160D2
:107A10000361476080F808C04663C0E90E52EFF387
:107A20001082012383F31088164E91F800C0776806
:107A3000CCF1090C03FA0CF327EA030373607368B3
:107A400082F310884E7B91F90F3091F90E2091F955
:107A5000117091F91010CDE900173146FFF700FFC2
:107A6000094B84F82950284684F82A50656184F827
:107A70002B50A561C4E9075584F82C50E36003B08E
:107A8000F0BD00BFFC6F044043494952C36902691D
:107A900013B990F82C308BB130B5044683B0A1B93E
:107AA00094F82630A16984F828300023E36184F833
:107AB0002C30B3232162D37103B030BD90F82B304A
:107AC000002BE9D1B323D371704700680023D37131
:107AD00090F9115090F90E20417B90F90F300195EB
:107AE00090F9100000902046FFF7BAFE2269D7E710
:107AF00008B50121FFF7CAFF002008BD70B5044694
:107B00000121FFF7C3FF2368256993F91130274945
:107B10005E09203603F01F020123002003FA02F25F
:107B2000E871E06041F82620BFF34F8FBFF36F8FFD
:107B3000226892F90E205509203502F01F0203FA3F
:107B400002F241F82520BFF34F8FBFF36F8F2268F9
:107B500092F910205509203502F01F0203FA02F2B3
:107B600041F82520BFF34F8FBFF36F8F226892F942
:107B70000F205509203502F01F0203FA02F241F8E6
:107B80002520BFF34F8FBFF36F8FEFF3108283F386
:107B900010882468064924784D68C4F10904A3407C
:107BA0002B434B604B6882F3108870BD00E100E00E
:107BB000FC6F044010B483B0EFF30383103B5BB25F
:107BC000C033474A52F823106FF3104142F8231094
:107BD000EFF30383103B434A5BB252F8233093F830
:107BE0002D10DA69B1B998691969012803D90879A2
:107BF00040F040000871012A27D0CA7CD2B28DF82B
:107C0000072001229DF8071083F82D2003B05DF8AE
:107C1000044B7047002AF9D0032A1FD0022A23D030
:107C2000012A2BD019691A6A5869C97C8154D3E991
:107C300007210131013AC3E90721002AE6D1196978
:107C40000B7962F386130B71E0E70A7942F01002B8
:107C50000A710A7942F008020A71CEE719690A79B5
:107C600042F040020A71DEE719690A7942F0100217
:107C70000A710A7942F008020A71D4E793F82A10CF
:107C800029B31968184C91F90F104809203001F0F8
:107C90001F0102FA01F144F82010BFF34F8FBFF328
:107CA0006F8F1969C87940F08000C871087940F079
:107CB00010000871087904246FF3C30008714C7038
:107CC00048796FF30000487183F82C20ABE71969FD
:107CD0004A7A082002F0F7024A724870A3E700BF10
:107CE00000600040D415002000E100E010B4EFF384
:107CF0000383103B5BB2C033344A52F823106FF356
:107D0000104142F82310EFF30383103B304A5BB27B
:107D100052F8233093F8272092B193F8260093F875
:107D2000281003283DD0186993F824408474013149
:107D3000013A83F8281083F827205DF8044B704738
:107D400093F82920002AF8D1DA69186982BBC27930
:107D50006FF3C712C271C02201E0013A02D0C179AB
:107D6000C909FAD11B68194A93F9103003F1C0010F
:107D7000002B52F821406FF3104442F8214009DBF8
:107D80005A09603203F01F030121124C01FA03F378
:107D900044F82230C3795DF8044B43F04003C371CB
:107DA00070470229BFD193F830000028C5D0BAE748
:107DB000196A5C69013A645C84740131C3E9072182
:107DC000002AC4D05DF8044B704700BF006000403B
:107DD000D415002000E100E030B4EFF30383103B42
:107DE0002A4A5BB252F8233093F829201AB193F84B
:107DF0002720012A45D0DA69CAB11969CB796FF316
:107E00008613CB71C02301E0013B02D0CA79520630
:107E1000FAD4EFF30383103B5BB2C0331C4A52F831
:107E200023106FF3104142F8231030BC704793F8D1
:107E30002A10F1B11968174D91F90F104809203037
:107E4000012401F01F0104FA01F145F82010BFF3ED
:107E50004F8FBFF36F8F1969C879042540F08000F8
:107E6000C8714D70487962F30000487183F82C4066
:107E7000C4E719694B7A082203F0F7034B724A7082
:107E8000BCE793F83020002AB5D1B6E7D41500201E
:107E90000060004000E100E038B5EFF30383103BE1
:107EA0005BB2344A52F823402269537ADBB2E021B4
:107EB000DD06517203F003011AD55078400637D41D
:107EC00001252946204684F82B50FFF7DFFD29467F
:107ED0002046FFF709FCEFF30383103B5BB2C0338E
:107EE000254A52F823106FF3104142F8231038BD91
:107EF0000029E5D119070FD594F82B30002B33D189
:107F000094F82910B323002914BF02210321D3714F
:107F10002046FFF7E9FBDEE794F82C100029DAD0C1
:107F20005B07D8D594F82B300121002BF0D1E7E77F
:107F30000029C5D151784D06C1F38010DAD52368E8
:107F400084F82B00596A537A0978012903F0F70362
:107F50000CBF03210221082053725070D170537955
:107F600043F001035371B6E700212046FFF78EFD71
:107F70000121CDE7D41500200060004070B582B02B
:107F8000EFF30384103C164B164964B253F82420D7
:107F9000567995688B5D03F00303032B0FD0C03433
:107FA00051F824306FF3104341F824302DB102A86A
:107FB000D36840F8083D0196A84702B070BD2DB1C6
:107FC00002A8D36840F8083D0196A847C034054B85
:107FD00053F824206FF3104243F8242002B070BD00
:107FE000D4150020006000400346D3E9022300209E
:107FF000536070470346D3E90123D269F0B4D2E954
:108000000347D2E90115566945F0004544F00044A4
:1080100041F000425D6100209C611A615F629E62D6
:10802000F0BC7047002824DB30B400F1604303F556
:108030006143104D104C0901C9B283F8001345F893
:10804000202000F1C001430954F821509B006FF338
:10805000104503F1604344F8215003F5614300F0FB
:108060001F00012202FA00F0C3F8800130BC186042
:1080700070477047D415002000600040F0B5836958
:1080800085B005460F4616469BB193E8070001AC44
:1080900084E80700EA691A601F719E6018466B69E0
:1080A0009847AB691BB194E8070083E8070005B067
:1080B000F0BD01AC2346EDE7430910B4203300F0D6
:1080C0001F0408490122A24041F82320BFF34F8F2B
:1080D000BFF36F8F044B5DF8044B002243F8202060
:1080E000704700BF00E100E0D415002038B54368B8
:1080F000044693F91200DD69002801DBFFF7DCFF7D
:1081000095F92400002801DBFFF7D6FF95F925003B
:10811000002801DBFFF7D0FFAB6A2BB193F9010018
:10812000002801DBFFF7C8FFD4E902210023236008
:1081300018469160536338BD30B40478486E032C00
:1081400098BF013042B1824206D2032C98BF02F19F
:10815000FF321A6030BC7047029D496BED0754BF77
:1081600001F01F01C1F30441032C09D9090981F071
:10817000010172B901B180B902225A6030BC704766
:1081800001F00C01A1F10401B1FA81F14909002AC1
:10819000F0D0824201D30029EED103225A6030BCD4
:1081A000704700BF2DE9F0470B7C41600D4601216F
:1081B00001FA03F2C260920716BF00220174027432
:1081C00003F58003D5E9051203F5F0631B020027D0
:1081D00084B0044683604161C0E90672EE69EFF342
:1081E0001083012282F31088874A287CD1680128F5
:1081F0008CBF6FF040006FF020000140D160D2686A
:1082000083F310882A78287A6B68A1684FF4254C8C
:10821000032AC1F800C04FEAC050CF6203F1FF3E0D
:10822000CF638F6400F0D88084BF40EA02409E464E
:108230004FF0004CC862D6F81880F069C1F810C041
:108240000027C1F814C0C1F818C04FF0FF3C4F62BE
:1082500003978F62CDF808C0C1F81C800862D6F879
:108260002C80C1F868E0C1F864E0002A40F0848006
:108270005B0863440293C64601204FF0030C4B6534
:108280008B65BEF1000F15D1337883B1777848F450
:108290008078022A48EA87134FEA071800F0A18085
:1082A00040F2A180032748EA030848EA0708B378A8
:1082B000002B7CD1B76A002F00F08A80BB7897F83A
:1082C00003A097F804901B0643EA0A73D7F808A0A6
:1082D00043EA09438B63C1F88CA0BAF1000F61D067
:1082E0000123BEF1000F09D197F81C9097F81BA04D
:1082F0004FEA496949EA4A2948EA0908C1F8883039
:10830000BEF1000F08D196F8213096F820E05B0707
:1083100043EA4E3348EA03084FF4AA03012A0B64E8
:1083200002D10023CB640B65E368CB60C1F83480D5
:10833000C1F830C00863697C95F912002246FFF746
:1083400071FE224696F8221096F92400FFF76AFE85
:10835000224696F8231096F92500FFF763FE2FB109
:108360002246397897F90100FFF75CFE274B23601E
:10837000002004B0BDE8F087012A3ED9EA686068B1
:10838000009702ABFFF7D8FE039FA168029BD6F8C7
:108390002CE02A78380440EA076040F0030C40F0F3
:1083A00001006CE7FB68003318BF012399E7F778F9
:1083B0003B0143EA8713022A43F480730FD017D995
:1083C00003273B43B76A48EA0348002F7FF476AFA0
:1083D0008F63C1F8887093E740F4803028E709275D
:1083E000EFE709275FE7002F14BF092706275AE7A1
:1083F000002F14BF09270627E3E701206346024642
:10840000C6464FF0030C3AE7FC6F04405450470057
:10841000F0B4EFF30383103B5BB203F1C001164AE3
:10842000164C52F821006FF3104042F8210054F826
:10843000230044682478012C15D1D0E90265B56089
:108440000025B564F564356552F821600C4F65F37D
:1084500010465D09603503F01F0304FA03F342F888
:10846000216047F82530436923B100221146F0BC52
:10847000FFF704BEF0BC704700600040D415002038
:1084800000E100E01C4B30B4C3600B7803F0010343
:108490004370EFF31083012585F31088174AD468E1
:1084A00024F48014D460D26883F31088EFF310842E
:1084B00085F310884378CBB1C26813796FF3C71383
:1084C000137184F310884A684B78D278C4680C4DD5
:1084D000D201D2B2DB016271DBB20122A371E2717F
:1084E0000B7803704560002030BC7047C5682A795E
:1084F00063F386122A71E4E700E00540FC6F044054
:1085000000434144C3684278002023F812107047AA
:10851000EFF31082012383F310884378C1683BB1E5
:108520000B7943F080030B7182F3108800207047B1
:108530000B7943F040030B7182F3108800207047E1
:10854000EFF31081012383F31088437843B1C268AD
:1085500013796FF3C713137181F3108800207047EC
:10856000C068027963F38612027181F310880020DB
:10857000704700BF10B40346EFF31084012282F36A
:10858000108842787AB1C26811796FF3C7111171FE
:10859000117A6FF3C711117284F3108800205860AC
:1085A0005DF8044B7047C168087962F38610087162
:1085B000087A62F386100872EEE700BF2DE9F043F7
:1085C0000F688BB08846814614461FB33D460FCDD9
:1085D0006E460FC60FCD0FC695E8030086E8030070
:1085E0000FCC3E460FC60FCC0FC694E8030085E8BB
:1085F00003003846C847D8F8004044B16D460FCD57
:108600000FC40FCD0FC495E8030084E803000BB03E
:10861000BDE8F0831746ECE770B58AB0EFF303834B
:10862000103B5BB2C0332E4A52F823106FF3104157
:1086300042F82310EFF30383103B5BB2294A52F850
:10864000235000212822684606F03CFF6C6894F80D
:108650004D280021D2B2ADF8042084F84D18B4F8AA
:108660004238C3F30013B3B142F020020223ADF845
:10867000042094F8532884F8533894F8523803F0BF
:108680001F03D2B2E01884F8532890F8202861F331
:10869000820280F820282A686E6A1268009205F12A
:1086A00020016A46E86903930496FFF787FFB4F850
:1086B0004238DB0611D52B681A69127D6AB193F92D
:1086C0001530002B09DB5A09403203F01F0301214A
:1086D000054801FA03F340F822300AB070BD00BF2C
:1086E00000600040D415002000E100E02DE9F041D9
:1086F0008AB0EFF30383103B5BB2C0333F4A52F8BA
:1087000023106FF3104142F82310EFF30385103D5F
:10871000EDB23B4B6EB2002253F82670D7E900E46D
:1087200094F85318DEF8103084F8532894F852C89F
:108730001B7B0CF01F0C0CF12002C9B2100184F855
:1087400053182158205843EAD07303F00103C1F3B2
:1087500080708DF819008DF81830002B4AD1C1F3C4
:108760008A41059104EB02129388C3F30303D8B244
:1087700008288DF81A303AD908208DF81A0008AA6E
:10878000002304EB0C1808EB0301013391F80612E7
:1087900002F8011B8342F6D3DEF80020009204EBBE
:1087A0000C03442283F820284FF4806100227B6A66
:1087B0000792ADF804106A4607F12001F8690493A6
:1087C000CDF80CC0FFF7FAFEB4F84238DB070BD542
:1087D000002E09DB7609403605F01F050123094A02
:1087E00003FA05F542F826500AB0BDE8F0810028EA
:1087F000C5D1D1E721F060410591B3E700600040A9
:10880000D415002000E100E0F0B58BB0EFF3038356
:10881000103B5BB2C033224A52F823106FF3104171
:1088200042F82310EFF30383103B5BB21D4A52F86A
:108830002350D5E900340126196894F853286F6A4B
:1088400084F8536894F85238009103F01F03E1183C
:10885000D2B284F85328002281F8202881F82028F9
:108860004FF40062ADF8042005F12001E86903939C
:108870006A460497FFF7A2FEB4F842389B070CD56E
:108880002B6893F91730002B07DB5A09403203F0AD
:108890001F0305499E4041F822600BB0F0BD00BFA8
:1088A00000600040D415002000E100E00B7C03F1E3
:1088B000401303F500631B02F0B40446416083607B
:1088C000EFF31082012383F310883B480E7CC568C8
:1088D000C6F10306B34025EA0303C360C36882F30D
:1088E0001088A26800231372137AC3F34003002B8D
:1088F000FAD1CD690E7AE87895F800C093722F7995
:1089000000F00700BCF1000F43D1002E48D14B68A6
:108910001773C0B267680025957350729672E36052
:108920003F7C264E91F9120046F82730013B9BB25E
:10893000A842138023DB4B7CDFF88CC0204E00F173
:10894000604202F561421B01DBB282F8003300F1A4
:10895000C00743094CF820409B0056F827C003F19C
:10896000604303F5614300F01F00012202FA00F0AA
:1089700065F3104C46F827C0C3F880011860D1E9B0
:108980000502104B20610020C4E905022360F0BC01
:108990007047BCF1500F09D04CEA0000C0B2B6E7F6
:1089A00086F0020640EA06106646B0E740F0500046
:1089B000C0B21E46ABE700BFFC6F0440B407002006
:1089C0000060004054474100D41500208268117AAD
:1089D00001F00101137AC3F340039942FAD14368CD
:1089E0001978012903D0F12313720020704710B4C5
:1089F000C1681C7C05484B1E9BB21380F12340F8D4
:108A00002410137200205DF8044B7047B407002057
:108A1000D0E90223013BF1219BB2138000201172A7
:108A2000704700BF10B48268117A01F00101137A17
:108A3000C3F340039942FAD1436893F91230F42406
:108A4000002113F1210F1472117315D08B4210DB2A
:108A50005A09203201210B4C03F01F0301FA03F3E2
:108A600044F82230BFF34F8FBFF36F8F436893F901
:108A70001230054A42F82300002303605DF8044BDE
:108A80001846704700E100E0D4150020F0B585B02D
:108A9000EFF30383103B5BB203F1C0011B4A1C4C94
:108AA00052F821006FF3104042F8210054F823409F
:108AB000D4E901120978137A0129DBB204D103F059
:108AC000F003F421117213722769BFB16569D5B142
:108AD00095E8070001AE86E807009B0644BF002327
:108AE0002B71A3692B602846B84763691BB196E8D0
:108AF000070083E80700A268137ADBB203F00F03D4
:108B0000137205B0F0BD01AE3546E6E700600040E7
:108B1000D4150020034600201A689B8A13807047F2
:108B200003681B88C3F3C0330B700020704700BF7D
:108B300003681031002033F811301380704700BFF4
:108B40002DE9F043D0E90032D1E90064D1F808E022
:108B5000D2F814C026F0405724F040521FFA82F891
:108B60002EF040551FFA87F93443A3F80490120CF5
:108B7000A3F814801FFA85F94FEA17482D0C14F05A
:108B8000405FA3F80890A3F80680DA825D8156D191
:108B9000CC68002C00F090802289150522D5D4E9FC
:108BA00000E5B4F80A90B4F80C80A3F89020A3F87C
:108BB0009C90A3F89E801FFA8EF9CEF30B48A3F881
:108BC00094904FEA1E7EA3F896801FFA85F9C5F3AC
:108BD0000B482D0F83F892E0A3F89890A3F89A80A1
:108BE00083F8935095051AD49CF80340098AA3F89A
:108BF0009020A3F8801064B11A88818A92B222F082
:108C00001F02B7FA87F71F32D21B92B211431A80A4
:108C100081822A4BC0E903360020BDE8F083A57CA1
:108C200094F81390B4F80E80B4F810E045EA090403
:108C300083F8A640A3F8A880A3F8AAE0D4E7204DC3
:108C4000204A2D6A1268DFF88080C5F3026902FAB3
:108C500009F2C5F30215EA40A8FB02529509DFF8B4
:108C60006C8041F2883202FB05F2A8FB0252920CA2
:108C70000132072A38BF072214F080550AD01EF0AF
:108C8000805F5FFA82F840F2011583F8DE8008BF4A
:108C90004FF48075A40009D5D2B245F400751EF0DA
:108CA000005F83F8DF2018BF45F00205CC68ADB245
:108CB0005D82002C7FF470AF224695E74344415219
:108CC00000E001405C160020D34D621083DE1B43A0
:108CD00030B400F1604303F56143104D104C0901BD
:108CE000C9B283F8001345F8202000F1C001430900
:108CF00054F821509B006FF3104503F1604344F892
:108D0000215003F5614300F01F00012202FA00F038
:108D1000C3F8800130BC1860704700BFD415002034
:108D200000600040430910B4203300F01F040849DC
:108D30000122A24041F82320BFF34F8FBFF36F8F72
:108D4000044B5DF8044B002243F82020704700BF1D
:108D500000E100E0D415002038B543680022044645
:108D6000826093F906005D69E260904202DBFFF7E2
:108D7000D9FF636893F90700002801DBFFF7D2FFF2
:108D800095F90600002801DBFFF7CCFF95F90700F5
:108D9000002801DBFFF7C6FF236800201882188037
:108DA000EFF31082012383F3108864680549248857
:108DB000CD68C4F11004A3402B43CB60CB6882F391
:108DC000108838BDFC6F04400A882DE9F843054639
:108DD0000C464E694879C968A96152022169296225
:108DE00002F1804202F5B8220021E961A1782A60EF
:108DF00032796C600302920743F04003F27843EA51
:108E0000413348BF43F48063002A6ED043F420739B
:108E1000022808BF38499BB208BF31F82200AB8254
:108E200018BF00202279E17896F801E03778D20364
:108E300042EA410242EA4E1EEFF3108C012181F317
:108E40001088DFF8BC802288D8F80C90C2F110029C
:108E500001FA02F229EA0202C8F80C20D8F80C2024
:108E60008CF3108896F804C02A6847F6FF581FFA5A
:108E70008EFE03EA08031CF0020F13801082A2F892
:108E80000EE0177309D04CF0030C82F88AC0084634
:108E900000F0EEF82A6896F804C094F9060082F80B
:108EA0008AC0002803DB2A46217AFFF711FF94F9D4
:108EB0000700002803DB617A2A46FFF709FF96F9CD
:108EC0000600002803DB2A46317AFFF701FF96F9F6
:108ED0000700002803DB717A2A46FFF7F9FE00201D
:108EE000064B2861AB60BDE8F883002890D143F4BD
:108EF00000439BB2AB8295E7742301004344415287
:108F0000FC6F04400C4A92F8363063B10A4A92F87A
:108F1000A030D906FBD4084982F8A00091F8A0300F
:108F2000DB06FBD4704792F83C30DB07EED492F8B6
:108F30003C30DB07F7D5E9E700E00140064B074985
:108F400093F826001A6A51F820300549C2F30262EC
:108F5000D3400B60704700BF00E001405802002082
:108F60005C16002070B5374C374B3848384A626081
:108F7000384900224AF20355A3F8FE53A0F8002115
:108F800021604FF4004193F82600E2606261A16025
:108F90002161196A54F820202F4DC1F30261CA40A3
:108FA000082009212A6083F8130483F8A21093F89B
:108FB0008024002A3BD0244B002083F8810483F8CE
:108FC000800493F8A030002B39D11F4B002283F886
:108FD000362093F83C20D207FBD5012100201F4A00
:108FE00083F8311083F826001A6293F82620186A55
:108FF00054F82220154CC0F30260C2402A600426B7
:1090000084224FF4254083F83E6083F83E2083F8A5
:10901000D0102246A3F8FE03A4F80411B2F80431DC
:109020009BB2002BFAD10123A2F8003170BD0121BF
:1090300083F8801440F2C44000F01AF8BBE7FFF751
:1090400061FFC2E75802002000E0014000C001407B
:1090500000127A00006CDC025C1600200001011096
:10906000704700BFA0F101000028FBD1704700BF8E
:10907000144B70B401FB00F14FF47A761B68124870
:10908000B0FBF3F0A1FB064500234FF0FF32AB42EB
:1090900008BFA24206D3B4FBF0F0800880B170BCD8
:1090A000FFF7E0BF8000B1FBF0F0A0FB06018B42B0
:1090B00008BF8242F2D24FF0FF3070BCFFF7D2BF40
:1090C00070BC70475C16002000CA9A3B0B4B70B511
:1090D000B3F840510A4E0024ADB225FA04F3DB0781
:1090E000E0B203D556F8243003B198470134102C70
:1090F000F3D1024BA3F8305170BD00BF00600040B7
:1091000090150020074830B4074D00F120040346B5
:109110001A1A13F8011BC032A34245F82210F7D1E6
:1091200030BC7047DF2C010000600040EFF310817D
:10913000012383F31088124B33F8102092B22AB126
:1091400033F81020013A92B223F8102033F810308F
:109150009BB28BB90B4A10B40B4CB2F8FE3334F807
:10916000100043F4254323EA0003A2F8FE3381F301
:1091700010885DF8044B704781F31088704700BF7A
:109180005416002000E001408023010030B4EFF3CA
:109190001081012383F310880C4A32F810309BB2FF
:1091A00053B90B4C0B4DB4F8FE3335F8105043F463
:1091B00025432B43A4F8FE3332F8103001339BB221
:1091C00022F8103081F3108830BC7047541600200C
:1091D00000E00140802301000C4A08B513684BB140
:1091E000033020F003000A491844884205D8106073
:1091F000184608BD074B1360F2E706F017F90C2379
:1092000003604FF0FF33184608BD00BFBC070020C5
:10921000007B00202817002000BE704708B500F032
:1092200005F8FCF77FF9FEE7704700BF70B5434AC9
:10923000434B444C4FF470054AF202500121C2F8EE
:10924000885082B09460A3F8FE031A4683F81F1476
:1092500092F8B134DB06FBD500204FF425460446D6
:10926000A2F8FE63FFF7E0FFFFF77CFE8DF80740F2
:1092700001209DF80730FFF789FFEFF310820125E9
:1092800085F31088304B996821F000419960996806
:1092900082F310882D4A1168C1F300018DF8071080
:1092A0001168C1F300018DF807101268C2F30002C3
:1092B0008DF80720EFF3108285F31088996841F04C
:1092C000004199609B6882F310882846FFF72EFFC3
:1092D0002846FFF7A9FF1E4B1E499C801E801E4E8C
:1092E0009E601E481E4E1F4ADE604FF48056A1F855
:1092F0002061121A9D80214606F0E4F81A481B4AA4
:109300001B491C4D121A06F0B9F81B4B5B1BA342FC
:109310004FEAA30605DD013455F8043B9847A64201
:10932000F9DCFFF70BFE0220FFF77EFFFFF7EAFEF6
:10933000002002B0BDE87040FFF792BE00ED00E0F3
:1093400000E0014000400000FC6F044000080440C1
:10935000000D004000600040007B002070020020F3
:10936000007F002024170020000000205802002069
:10937000CC2F0100140200204402002000220270C1
:10938000C0E9012280F83520DF2282777047FFFF95
:109390002DE9F04704464FF000081F469DF828309D
:1093A00080F8008021730375089B0361099B83612A
:1093B0000B9B03620C9BDFF84091C0E90938FF2347
:1093C0008A4643771546002A3ED184F8352050203E
:1093D00005F084F94FF6FF73A0F8423000F1200841
:1093E000DF2380F8205080F8215080F8225080F848
:1093F0002350C0E90955C562C0E90E55C0E90C55B6
:1094000080F8443080F8453080F8405080F8415072
:10941000C0E91255C4F8288020222946064606F0E5
:1094200051F8072FA6605AD8314ABAF1020FD35D1E
:10943000114642D099F80000002856D1002B4ED199
:1094400002232777D35548E0012A48D184F83520F4
:10945000242005F043F9837880F8008068F3020344
:1094600083704378C57003F0F80368F3061306466B
:10947000437080F8048080F8058080F80680A06240
:109480001C224146083006F01DF8012F666026D8E0
:10949000184BBAF1020FDA5D194602D099F80000B4
:1094A00028B1012A1BD802232777CB5515E0B2B982
:1094B0000222DA552777257011E0012BF3D927779F
:1094C000384601F0B7FB3022816A404605F0D6FFEE
:1094D000384601F0AFFB036BA36101232370002327
:1094E00089F800302078BDE8F087012BDAE700BF6B
:1094F000C2070020C0070020CA07002038B590F836
:10950000353004468BB9806808B9002038BD04F1B5
:109510000C01FEF747FE0546A068FEF76BFD0E2D19
:1095200001D0002DF1D10120F0E7012BEDD14068F1
:109530000028EAD004F10C010830FFF7B7F905461E
:1095400060680830FFF764FAE9E708B590F835304D
:109550003BB9806820B1FEF747FDB0FA80F04009C2
:1095600008BD012B06D140680028F9D00830FFF76C
:109570002DFAF2E70020F3E708B590F835303BB953
:10958000806820B1FEF7B2FDB0FA80F0400908BD56
:10959000012B06D140680028F9D00830FFF742FAC5
:1095A000F2E70020F3E7FFFF38B50446FFF7E4FFDA
:1095B000606838B1237F0C4A00252421D55405F07A
:1095C000B5F86560A56875B1237F084AA86C0021CD
:1095D000D15410B1202105F0A9F85021284605F0FA
:1095E000A5F80023A36038BDC0070020C2070020F3
:1095F00010B50446FFF7D8FF204610BD01F10C035B
:1096000003608B6803B1203343604B68836070470D
:10961000836823B11868003018BF01207047406884
:109620000028FBD08068F6E7F0B585B004460F4609
:10963000014601A81546FFF7E1FF2046FFF7E8FFC6
:10964000064610B12046FFF797FF00F055F82A466E
:1096500001A900F01DF9054650B167772EB12046EB
:10966000FFF74CFF2046FFF770FF284605B0F0BD1E
:10967000DF23A377F2E7FFFF00F1C0020A4B53F8A4
:1096800022106FF3104143F8221000F01F0240092E
:10969000800000F1604000F5614001239340C0F874
:1096A00080310360704700BF006000404309012221
:1096B00000F01F0002FA00F02033044A42F82300B1
:1096C000BFF34F8FBFF36F8F704700BF00E100E023
:1096D0007047FFFF0028A7BF00F1604000F5614020
:1096E00000F00F00034BABBFC023C02280F8003353
:1096F0001A54704714ED00E038B50A4D2B78BFF3CB
:109700005B8F13F001040BD1284604F0F8FF38B149
:10971000054B28461C6004F0FEFF0448FBF7F4FEEE
:10972000014838BDCC070020D0070020D1960000AA
:109730002AB9304BC031012243F821207047012A59
:1097400003D1C0312B4B0222F6E7022A03D1C031EC
:10975000284B0322F0E7032A03D1C031254B042212
:10976000EAE7042A03D1C031224B0522E4E7052AA7
:1097700003D1C0311F4B0622DEE7062A03D1C031D8
:109780001C4B0722D8E7072A03D1C031194B082206
:10979000D2E7082A03D1C031164B0922CCE7092AA7
:1097A00003D1C031134B0A22C6E70A2A03D1C031C4
:1097B000104B0B22C0E70B2A03D1C0310D4B0C22FA
:1097C000BAE70C2A03D1C0310A4B0D22B4E70D2AA7
:1097D00003D1C031074B0E22AEE70E2A03D1C031B0
:1097E000044B0F22A8E70F2AA8D1C031014B102249
:1097F000A2E700BF0060004032B91A4BC0315D22C1
:1098000043F8212001207047012A05D1C031154BB2
:10981000652043F82100F5E7022A03D1C031114B3E
:109820006D22EDE7032A03D1C0310E4B7522E7E725
:10983000042A03D1C0310B4B7D22E1E7052A03D175
:10984000C031084B8522DBE7062A03D1C031054B26
:109850008D22D5E7072A03D1C031024B9522CFE7ED
:10986000002070470060004032B9C031074B1E2213
:1098700043F8212001207047012A05D1C031034B54
:10988000212043F82100F5E70020704700600040E8
:10989000F8B51B4B9E680B68174693F912202132CE
:1098A00005460C4601D00120F8BD4A6840368AB111
:1098B0001A7C0168FFF7A0FF0028F4D02268082373
:1098C00053742B689374AFB90E4A46F823200133C2
:1098D0002B60E9E78A6882B11A7C0168FFF7C4FF50
:1098E0000028E0D02268082353742B6893740FB9C2
:1098F000054AEAE746F82370E9E71046D4E700BFD7
:1099000000ED00E0118400008D8A00002AB9064BAA
:10991000C031362243F821207047012AFCD1C031E2
:10992000014B3B22F6E700BF006000402AB9064B1E
:10993000C031352243F821207047012AFCD1C031C3
:10994000014B3A22F6E700BF006000402AB9064BFF
:10995000C031372243F821207047012AFCD1C031A1
:10996000014B3C22F6E700BF006000402AB9064BDD
:10997000C031382243F821207047012AFCD1C03180
:10998000014B3D22F6E700BF006000402AB90C4BB6
:10999000C031992243F821207047012A03D1C031F8
:1099A000074B9F22F6E7022A03D1C031044BA422C1
:1099B000F0E7092AF0D1C031014BA922EAE700BF44
:1099C000006000402AB90C4BC031982243F8212096
:1099D0007047012A03D1C031074B9E22F6E7022AC5
:1099E00003D1C031044BA322F0E7092AF0D1C031E2
:1099F000014BA822EAE700BF006000402AB90C4BE7
:109A0000C0319A2243F821207047012A03D1C03186
:109A1000074BA022F6E7022A03D1C031044BA5224E
:109A2000F0E7092AF0D1C031014BAA22EAE700BFD2
:109A3000006000402AB90C4BC0319B2243F8212022
:109A40007047012A03D1C031074BA122F6E7022A51
:109A500003D1C031044BA622F0E7092AF0D1C0316E
:109A6000014BAB22EAE700BF006000402AB9064B79
:109A7000C031AE2243F821207047012AFCD1C03109
:109A8000014BB322F6E700BF006000402AB9064B45
:109A9000C031AD2243F821207047012AFCD1C031EA
:109AA000014BB222F6E700BF006000402AB9064B26
:109AB000C031B12243F821207047012AFCD1C031C6
:109AC000014BB622F6E700BF006000402AB9064B02
:109AD000C031B02243F821207047012AFCD1C031A7
